S018000068656174657246616E436F6E74726F6C2E737265639D
S11300000C9434000C9446000C9446000C94460066
S11300100C9446000C9446000C9446000C94480042
S11300200C9446000C9446000C9446000C94460034
S11300300C9446000C9446000C9446000C94460024
S11300400C9446000C9446000C9446000C94460014
S11300500C9446000C9446000C9446000C94460004
S11300600C9446000C94460011241FBECFEFD8E038
S1130070DEBFCDBF21E0A0E0B1E001C01D92A03100
S1130080B207E1F70E94D6010C9498050C94000085
S11300901F920F920FB60F9211242F933F934F93F9
S11300A05F936F937F938F939F93AF93BF93EF93DC
S11300B0FF9380910C0190910D01A0910E01B091DC
S11300C00F010196A11DB11D80930C0190930D01A8
S11300D0A0930E01B0930F0160910C0170910D017A
S11300E080910E0190910F0128E833E140E050E047
S11300F00E946705672B682B692B19F481E08093B4
S11301000601FF91EF91BF91AF919F918F917F91E4
S11301106F915F914F913F912F910F900FBE0F9070
S11301201F901895E0E7F0E0808182608083E0EB27
S1130130F0E0808182608083E1EBF0E08081826086
S113014080838CE78093B3000895569A5E9881E883
S113015084BD84E085BD16BC17BC219A299A80EC25
S11301608093800081E18093810084E190E090930A
S11301700B0180930A01909387008093860010926C
S113018085001092840010928900109288000895CE
S11301908AB188618AB98BB1877E8BB98AB1887F2D
S11301A08AB98BB187608BB9229A2A980895EAE7B5
S11301B0F0E0808183608083808180688083ECE7C5
S11301C0F0E08081876480830895EAE7F0E080812D
S11301D080648083808184FFFDCFEAE7F0E0808142
S11301E08061808380917800909179000895CF9206
S11301F0DF92EF92FF92682F70E080E090E00E941F
S11302006E042AE037ED43E25CE30E94FA046B01DA
S11302107C0160910A0170910B0180E090E00E94E2
S11302206C049B01AC01C701B6010E94FA040E9450
S11302303D0470E07093890060938800FF90EF9014
S1130240DF90CF9008950E94E500BC0180E090E02B
S11302500E946C0420E030E44CE950E40E94FA046B
S113026020E030E04AEF53E40E945E0320E030E0F7
S113027040E251E40E94CB030E943D04862F08957E
S113028089B1817008950E9440018093050187E837
S113029093E10197F1F700C00000809105018130DE
S11302A029F490910401992339F00DC081110BC0F8
S11302B090910401913039F48093040180910901F3
S11302C08F5F8093090180910901853018F081E0E6
S11302D08093090180910901089589B186958170FF
S11302E008950E946D018093030187E893E10197CB
S11302F0F1F700C0000080910301813029F490914E
S11303000201992339F00DC081110BC090910201B3
S1130310913039F480930201809108018F5F8093BA
S1130320080180910801833018F081E0809308016E
S113033080910801089589B182FB882780F9089586
S11303400E949B018093010187E893E10197F1F7F3
S113035000C0000080910101813029F490910001D6
S1130360992339F00DC081110BC090910001913097
S113037039F480930001809107018F5F8093070116
S113038080910701853018F081E080930701809106
S1130390070108955C9A08955C9808955B9A0895FE
S11303A05B9808952A9A08952A980895CF93DF9325
S11303B000D01F92CDB7DEB70E9492000E94D700F2
S11303C00E94C8000E94A5007894412C512C32014F
S11303D0812C912C5401C12CD12C7601312C198201
S11303E0212C0E9443018B83281609F446C080E027
S11303F00E94F7000E94D0010E94D40110920801CB
S113040010920701C0900C01D0900D01E0900E01F4
S1130410F0900F012B81223091F018F4213039F043
S113042025C08B81833099F08430C9F01FC092E3DA
S113043097BD0E94CA012B80312C19821FC025E66A
S113044027BD0E94CA012B80312C198217C088E96C
S113045087BD0E94CA012B80312C19820FC017BCA2
S11304600E94CC012B80312C198208C017BC0E9439
S1130470CC012B80312C198201C02B8080910C017E
S113048090910D01A0910E01B0910F018C199D095D
S1130490AE09BF098135934CA105B10530F017BCF5
S11304A00E94CC0110920901212C0E9471018A83BF
S11304B09981981749F117BC0E94CC0180E00E94F1
S11304C0F7000E94D0011092090110920701409098
S11304D00C0150900D0160900E0170900F012A8163
S11304E0213019F0223031F00AC00E94D20110E00C
S11304F0212C0BC00E94D40110E0212C06C00E94C4
S1130500D40110E0212C01C0132D80910C01909195
S11305100D01A0910E01B0910F0184199509A6094E
S1130520B70981339547A105B10528F00E94D4018C
S1130530109208011A820E94A001382E181709F49B
S113054049C017BC0E94CC010E94D4011092090139
S11305501092080180900C0190900D01A0900E0162
S1130560B0900F0182E03816A9F0831520F091E0D5
S1130570391641F027C023E03216A1F084E0381682
S1130580C9F020C081E20E94F7000E94CE011982C6
S1130590212C22C082E40E94F7000E94CE0119821D
S11305A0212C1AC084E60E94F7000E94CE01198211
S11305B0212C12C080E00E94F7000E94D001198211
S11305C0212C0AC080E00E94F7000E94D001198209
S11305D0212C02C09A81998380910C0190910D0184
S11305E0A0910E01B0910F0188199909AA09BB09BC
S11305F081339547A105B10540F080E00E94F700E2
S11306000E94D00110920701312C809106018823A9
S113061009F4E7CE1092060185E08A8300E010E039
S11306200E942301080F111D9A8191509A83911100
S1130630F7CF9801ADECBCEC0E948905969587959F
S1130640969587958035B0F52B812230A9F018F462
S1130650213039F02BC09B819330C9F0943011F1D3
S113066025C08E3120F017BC0E94CC01BACE22E303
S113067027BD0E94CA01B5CE823320F017BC0E9468
S1130680CC01AFCE85E687BD0E94CA01AACE8634CE
S113069020F017BC0E94CC01A4CE98E997BD0E941B
S11306A0CA019FCE17BC0E94CC019BCE17BC0E94EE
S11306B0CC0197CE17BC0E94CC0193CE5058BB27D7
S11306C0AA270E9476030C94C0040E94B20438F056
S11306D00E94B90420F039F49F3F19F426F40C94D5
S11306E0AF040EF4E095E7FB0C94A904E92F0E94F3
S11306F0D10458F3BA17620773078407950720F0EB
S113070079F4A6F50C94F3040EF4E0950B2EBA2FAD
S1130710A02D0B01B90190010C01CA01A001112403
S1130720FF27591B99F0593F50F4503E68F11A16AF
S1130730F040A22F232F342F4427585FF3CF469540
S113074037952795A795F0405395C9F77EF41F1662
S1130750BA0B620B730B840BBAF09150A1F0FF0F2C
S1130760BB1F661F771F881FC2F70EC0BA0F621F18
S1130770731F841F48F4879577956795B795F79508
S11307809E3F08F0B0CF9395880F08F09927EE0F9D
S11307909795879508950E94DF030C94C0040E94E6
S11307A0B90458F00E94B20440F029F45F3F29F0E4
S11307B00C94A90451110C94F4040C94AF040E94F9
S11307C0D10468F39923B1F3552391F3951B550B89
S11307D0BB27AA2762177307840738F09F5F5F4F10
S11307E0220F331F441FAA1FA9F335D00E2E3AF04F
S11307F0E0E832D091505040E695001CCAF72BD067
S1130800FE2F29D0660F771F881FBB1F26173707B7
S11308104807AB07B0E809F0BB0B802DBF01FF27E9
S113082093585F4F3AF09E3F510578F00C94A90419
S11308300C94F4045F3FE4F3983ED4F386957795E3
S11308406795B795F7959F5FC9F7880F911D9695A2
S1130850879597F90895E1E0660F771F881FBB1FFE
S1130860621773078407BA0720F0621B730B840BAB
S1130870BA0BEE1F88F7E09508950E94D90488F01A
S11308809F5798F0B92F9927B751B0F0E1F0660F50
S1130890771F881F991F1AF0BA95C9F714C0B13091
S11308A091F00E94F304B1E008950C94F304672FCF
S11308B0782F8827B85F39F0B93FCCF386957795C0
S11308C06795B395D9F73EF49095809570956195A9
S11308D07F4F8F4F9F4F0895E89409C097FB3EF4D4
S11308E090958095709561957F4F8F4F9F4F992379
S11308F0A9F0F92F96E9BB279395F69587957795F7
S11309006795B795F111F8CFFAF4BB0F11F460FFB6
S11309101BC06F5F7F4F8F4F9F4F16C0882311F00E
S113092096E911C0772321F09EE8872F762F05C022
S1130930662371F096E8862F70E060E02AF09A95BD
S1130940660F771F881FDAF7880F9695879597F9B2
S1130950089597F99F6780E870E060E008959FEF3D
S113096080EC089500240A94161617061806090642
S1130970089500240A941216130614060506089511
S1130980092E0394000C11F4882352F0BB0F40F499
S1130990BF2B11F460FF04C06F5F7F4F8F4F9F4FD9
S11309A0089557FD9058440F551F59F05F3F71F05B
S11309B04795880F97FB991F61F09F3F79F08795C2
S11309C00895121613061406551FF2CF4695F1DF4B
S11309D008C0161617061806991FF1CF86957105DB
S11309E0610508940895E894BB2766277727CB010F
S11309F097F908950E940D050C94C0040E94B20456
S1130A0038F00E94B90420F0952311F00C94A90445
S1130A100C94AF0411240C94F4040E94D10470F3D8
S1130A20959FC1F3950F50E0551F629FF001729F8F
S1130A30BB27F00DB11D639FAA27F00DB11DAA1F9E
S1130A40649F6627B00DA11D661F829F2227B00DEB
S1130A50A11D621F739FB00DA11D621F839FA00D76
S1130A60611D221F749F3327A00D611D231F849FC6
S1130A70600D211D822F762F6A2F11249F5750401D
S1130A809AF0F1F088234AF0EE0FFF1FBB1F661F98
S1130A90771F881F91505040A9F79E3F510580F061
S1130AA00C94A9040C94F4045F3FE4F3983ED4F34B
S1130AB0869577956795B795F795E7959F5FC1F705
S1130AC0FE2B880F911D9695879597F90895A1E2BD
S1130AD01A2EAA1BBB1BFD010DC0AA1FBB1FEE1FB4
S1130AE0FF1FA217B307E407F50720F0A21BB30BFF
S1130AF0E40BF50B661F771F881F991F1A9469F77B
S1130B0060957095809590959B01AC01BD01CF01D6
S1130B100895A29FB001B39FC001A39F700D811DD2
S1130B201124911DB29F700D811D1124911D0895F2
S1070B30F894FFCF63
S9030000FC
