S018000068656174657246616E436F6E74726F6C2E737265639D
S11300000C9434000C9446000C9446000C94460066
S11300100C9446000C9446000C9446000C94480042
S11300200C9446000C9446000C9446000C94460034
S11300300C9446000C9446000C9446000C94460024
S11300400C9446000C9446000C9446000C94460014
S11300500C9446000C9446000C9446000C94460004
S11300600C9446000C94460011241FBECFEFD8E038
S1130070DEBFCDBF21E0A0E0B1E001C01D92A730FA
S1130080B207E1F70E944B010C9400050C940000A8
S11300901F920F920FB60F9211248F939F93AF93D9
S11300A0BF938091030190910401A0910501B09147
S11300B006010196A11DB11D8093030190930401D3
S11300C0A0930501B0930601BF91AF919F918F91C9
S11300D00F900FBE0F901F901895E0E7F0E080811D
S11300E082608083E0EBF0E0808182608083E1EBDA
S11300F0F0E08081866080838FE38093B30008956D
S1130100569A5E9881E884BD83E085BD16BC17BC11
S1130110219A299880E88093800083E1809381006C
S11301208FEF90E090938700809386001092850073
S113013010928400109289001092880008958AB168
S113014088618AB98AB1887F8AB934B124B181E0DF
S113015090E002C0880F991F3A95E2F7822B84B988
S11301600895EAE7F0E0808187688083ECE7F0E0B7
S11301708081876480830895EAE7F0E08081806469
S11301808083808186FDFDCF609178007091790035
S113019080E090E00E94270421ED32E243E050E445
S11301A00E94B503089589B182FB882780F90895D8
S11301B00E94D3008823C9F02FEF89EF90E02150EB
S11301C080409040E1F700C000000E94D3008111FC
S11301D0FCCF809102018F5F809302018091020124
S11301E0853018F081E08093020180910201089526
S11301F089B18695817008950E94F8008823C9F01A
S11302002FEF89EF90E0215080409040E1F700C04B
S113021000000E94F8008111FCCF809101018F5FE2
S11302208093010180910101833018F081E0809373
S1130230010180910101089589B1817008950E949E
S11302401C018823C9F02FEF89EF90E021508040F2
S11302509040E1F700C000000E941C018111FCCF16
S1130260809100018F5F80930001809100018530AF
S113027018F081E0809300018091000108955C9A58
S113028008955C9808955B9A08955B9808952A9A56
S113029008952A980895CF93DF93CDB7DEB72A97B0
S11302A00FB6F894DEBF0FBECDBF0E9480000E943F
S11302B06D0078940E94B1000E949F0019821A82F6
S11302C01B821C82812C912C5401212C312C210164
S11302D0C12CD12C7601612C00E010E001C0612C0E
S11302E00E94D8008987181709F447C0E8E8F0E0AD
S11302F0118210820E9445010E944901109201015D
S113030010920001C0900301D0900401E090050117
S1130310F0900601F985F23091F018F4F13039F0DB
S113032025C02985233099F02430C9F01FC083E308
S113033087BD0E943F011985612C00E01FC096E62D
S113034097BD0E943F011985612C00E017C0E9E9BF
S1130350E7BD0E943F011985612C00E00FC017BC66
S11303600E9441011985612C00E008C017BC0E945D
S113037041011985612C00E001C0198580910301B8
S113038090910401A0910501B09106018C199D0979
S1130390AE09BF0981329E44A105B10530F017BCF6
S11303A00E9441011092020110E00E94FC00782E8C
S11303B0081751F117BC0E944101E8E8F0E01182EE
S11303C010820E9445011092020110920001809057
S11303D0030190900401A0900501B0900601F1E0A2
S11303E07F1621F022E0721631F00AC00E94470104
S11303F0612C10E009C00E944901612C10E004C086
S11304000E944901612C10E0809103019091040144
S1130410A0910501B091060188199909AA09BB099F
S113042081329E44A105B10528F00E944901109231
S11304300101712C0E941F018A87681609F451C0BA
S113044017BC0E9441010E944901109202011092BE
S11304500101209003013090040140900501509067
S11304600601FA85F230A9F018F4F13039F030C001
S11304702A852330C9F0243011F12AC084E590E0A4
S1130480E8E8F0E0918380830E94430100E010E0FB
S113049029C086EA90E0E8E8F0E0918380830E9436
S11304A0430100E010E01EC08FEF90E0E8E8F0E0C8
S11304B0918380830E94430100E010E013C0E8E8C8
S11304C0F0E0118210820E94450100E010E00AC0B1
S11304D0E8E8F0E0118210820E94450100E010E09B
S11304E001C0072D8091030190910401A0910501A1
S11304F0B091060182199309A409B50981329E4479
S1130500A105B10508F4AAC0E8E8F0E01182108260
S11305100E94450110920001609103017091040151
S1130520809105019091060128EB3BE040E050E00A
S11305300E94DE04672B682B692B09F0D0CE1A8643
S11305400F2EF5E07F2EF02D0E94BC009B01AC0124
S113055069817A818B819C810E94440369837A83B7
S11305608B839C837A947110EFCF20E030E040EAD3
S113057050E469817A818B819C810E94B5036D83EB
S11305807E838F83988720E030E040EA52E40E9423
S1130590B00388230CF05DC0E985E23011F118F452
S11305A0E13041F051C0F985F33091F1F43009F4B0
S11305B046C04AC020E030E040EF51E46D817E81C6
S11305C08F8198850E94D90488232CF017BC0E943F
S11305D041016A8485CE23E327BD0E943F016A84DA
S11305E07FCE20E030E048E452E46D817E818F814B
S11305F098850E94D90488232CF017BC0E944101DD
S11306006A846ECE86E687BD0E943F016A8468CE06
S113061020E030E04CE852E46D817E818F81988542
S11306200E94D90488232CF017BC0E9441016A84DB
S113063057CE99E997BD0E943F016A8451CE17BCF9
S11306400E9441016A844CCE17BC0E9441016A8415
S113065047CE17BC0E9441016A8442CE60910301D7
S113066070910401809105019091060128EB3BE013
S113067040E050E00E94DE04672B682B692B09F4EC
S11306805FCF6A842DCE5058BB27AA270E945B03F4
S11306900C949F040E94910438F00E94980420F066
S11306A039F49F3F19F426F40C948E040EF4E0956B
S11306B0E7FB0C948804E92F0E94B00458F3BA179E
S11306C0620773078407950720F079F4A6F50C9464
S11306D0D2040EF4E0950B2EBA2FA02D0B01B90114
S11306E090010C01CA01A0011124FF27591B99F0A4
S11306F0593F50F4503E68F11A16F040A22F232FB0
S1130700342F4427585FF3CF469537952795A795FF
S1130710F0405395C9F77EF41F16BA0B620B730BA6
S1130720840BBAF09150A1F0FF0FBB1F661F771F17
S1130730881FC2F70EC0BA0F621F731F841F48F4CC
S1130740879577956795B795F7959E3F08F0B0CF55
S11307509395880F08F09927EE0F9795879508953C
S11307600E94640408F481E008950E94C9030C9473
S11307709F040E94980458F00E94910440F029F4C8
S11307805F3F29F00C94880451110C94D3040C9409
S11307908E040E94B00468F39923B1F3552391F3B6
S11307A0951B550BBB27AA2762177307840738F0DC
S11307B09F5F5F4F220F331F441FAA1FA9F335D039
S11307C00E2E3AF0E0E832D091505040E695001CED
S11307D0CAF72BD0FE2F29D0660F771F881FBB1FA7
S11307E0261737074807AB07B0E809F0BB0B802D85
S11307F0BF01FF2793585F4F3AF09E3F510578F0B1
S11308000C9488040C94D3045F3FE4F3983ED4F32F
S1130810869577956795B795F7959F5FC9F7880F84
S1130820911D9695879597F90895E1E0660F771FD6
S1130830881FBB1F621773078407BA0720F0621B67
S1130840730B840BBA0BEE1F88F7E0950895E894B8
S113085009C097FB3EF490958095709561957F4F04
S11308608F4F9F4F9923A9F0F92F96E9BB279395B2
S1130870F695879577956795B795F111F8CFFAF4C2
S1130880BB0F11F460FF1BC06F5F7F4F8F4F9F4FF3
S113089016C0882311F096E911C0772321F09EE851
S11308A0872F762F05C0662371F096E8862F70E0B7
S11308B060E02AF09A95660F771F881FDAF7880F91
S11308C09695879597F90895990F0008550FAA0BE7
S11308D0E0E8FEEF16161706E807F907C0F012164F
S11308E01306E407F50798F0621B730B840B950B52
S11308F039F40A2661F0232B242B252B21F40895A7
S11309000A2609F4A140A6958FEF811D811D089543
S113091097F99F6780E870E060E008959FEF80ECAE
S1130920089500240A941616170618060906089551
S113093000240A9412161306140605060895092EB7
S11309400394000C11F4882352F0BB0F40F4BF2B26
S113095011F460FF04C06F5F7F4F8F4F9F4F089566
S113096057FD9058440F551F59F05F3F71F047955C
S1130970880F97FB991F61F09F3F79F08795089541
S1130980121613061406551FF2CF4695F1DF08C060
S1130990161617061806991FF1CF8695710561057D
S11309A008940895E894BB2766277727CB0197F925
S11309B008950E94640408F48FEF0895A1E21A2EAA
S11309C0AA1BBB1BFD010DC0AA1FBB1FEE1FFF1FEF
S11309D0A217B307E407F50720F0A21BB30BE40B3F
S11309E0F50B661F771F881F991F1A9469F7609586
S11309F07095809590959B01AC01BD01CF01089540
S1070A00F894FFCF94
S9030000FC
