S018000068656174657246616E436F6E74726F6C2E737265639D
S11300000C9434000C9446000C9446000C94460066
S11300100C9446000C9446000C9446000C94480042
S11300200C9446000C9446000C9446000C94460034
S11300300C9446000C9446000C9446000C94460024
S11300400C9446000C9446000C9446000C94460014
S11300500C9446000C9446000C9446000C94460004
S11300600C9446000C94460011241FBECFEFD8E038
S1130070DEBFCDBF21E0A0E0B1E001C01D92A730FA
S1130080B207E1F70E942F010C94F1010C940000D7
S11300901F920F920FB60F9211248F939F93AF93D9
S11300A0BF938091030190910401A0910501B09147
S11300B006010196A11DB11D8093030190930401D3
S11300C0A0930501B0930601BF91AF919F918F91C9
S11300D00F900FBE0F901F901895E0E7F0E080811D
S11300E082608083E0EBF0E0808182608083E1EBDA
S11300F0F0E08081866080838FE38093B30008956D
S1130100569A5E9881E884BD83E085BD16BC17BC11
S1130110219A299880E88093800083E1809381006C
S11301208FEF90E090938700809386001092850073
S113013010928400109289001092880008958AB168
S113014088618AB98AB1887F8AB934B124B181E0DF
S113015090E002C0880F991F3A95E2F7822B84B988
S11301600895EAE7F0E0808187688083ECE7F0E0B7
S1130170808187648083089589B182FB882780F910
S113018008950E94BC008823C1F02FEF89EF90E00E
S1130190215080409040E1F700C000000E94BC0064
S11301A08111FCCF809102018F5F853018F4809318
S11301B0020103C081E0809302018091020108954D
S11301C089B18695817008950E94E0008823C1F06A
S11301D02FEF89EF90E0215080409040E1F700C07C
S11301E000000E94E0008111FCCF809101018F5F2B
S11301F0853018F48093010103C081E080930101EC
S113020080910101089589B1817008950E940301CC
S11302108823C1F02FEF89EF90E021508040904077
S1130220E1F700C000000E9403018111FCCF80911E
S113023000018F5F853018F48093000103C081E0D2
S1130240809300018091000108955C9A08955C9860
S113025008955B9A08955B9808952A9808950E94DA
S113026080000E946D0078940E94B1000E949F005B
S11302708FEF87B9812C912C5401C12CD12C76019C
S1130280212C312CC8E8D0E00F2EF6EA4F2E512C49
S1130290F02D66246A94712C02C0202E312E0E9407
S11302A0C100182F0E94E4000E940601082F311695
S11302B0B1F1198218820E942B010E942D01C09075
S11302C00301D0900401E0900501F0900601123082
S11302D071F018F4113031F01EC0133079F014307D
S11302E0A1F019C023E327BD0E94250118C086E6AA
S11302F087BD0E94250192E098B911C029E927BD64
S11303000E94250183E088B90AC017BC0E94270116
S113031094E098B904C017BC0E94270118B88091D2
S1130320030190910401A0910501B09106018C197B
S11303309D09AE09BF0981319742A105B10518F0A5
S113034017BC0E9427012016A9F117BC0E9427019F
S11303500E942D018090030190900401A09005015A
S1130360B0900601023081F018F4013031F01DC064
S1130370033079F0043091F018C084E590E099835B
S113038088830E94290116C0598248820E9429014B
S113039011C0798268820E9429010CC019821882D6
S11303A00E942B0194E098B905C0198218820E941A
S11303B02B0118B88091030190910401A0910501CB
S11303C0B091060188199909AA09BB09813197429C
S11303D0A105B10508F461CF198218820E942B018E
S10903E05CCFF894FFCF8E
S9030000FC
