S018000068656174657246616E436F6E74726F6C2E737265639D
S11300000C9434000C9446000C9446000C94460066
S11300100C9446000C9446000C9446000C94480042
S11300200C9446000C9446000C9446000C94460034
S11300300C9446000C9446000C9446000C94460024
S11300400C9446000C9446000C9446000C94460014
S11300500C9446000C9446000C9446000C94460004
S11300600C9446000C94460011241FBECFEFD8E038
S1130070DEBFCDBF21E0A0E0B1E001C01D92A730FA
S1130080B207E1F70E9434010C945D020C94000065
S11300901F920F920FB60F9211248F939F93AF93D9
S11300A0BF938091030190910401A0910501B09147
S11300B006010196A11DB11D8093030190930401D3
S11300C0A0930501B0930601BF91AF919F918F91C9
S11300D00F900FBE0F901F901895E0E7F0E080811D
S11300E082608083E0EBF0E0808182608083E1EBDA
S11300F0F0E08081866080838FE38093B30008956D
S1130100569A5E9881E884BD83E085BD16BC17BC11
S1130110219A299880E88093800083E1809381006C
S11301208FEF90E090938700809386001092850073
S113013010928400109289001092880008958AB168
S113014088618AB98AB1887F8AB934B124B181E0DF
S113015090E002C0880F991F3A95E2F7822B84B988
S11301600895EAE7F0E0808187688083ECE7F0E0B7
S1130170808187648083089589B182FB882780F910
S113018008950E94BC008823C9F02FEF89EF90E006
S1130190215080409040E1F700C000000E94BC0064
S11301A08111FCCF809102018F5F809302018091C5
S11301B00201853018F081E08093020180910201F0
S11301C0089589B18695817008950E94E10088237D
S11301D0C9F02FEF89EF90E0215080409040E1F783
S11301E000C000000E94E1008111FCCF8091010158
S11301F08F5F8093010180910101833018F081E0C9
S11302008093010180910101089589B1817008955D
S11302100E9405018823C9F02FEF89EF90E0215057
S113022080409040E1F700C000000E940501811168
S1130230FCCF809100018F5F8093000180910001C9
S1130240853018F081E080930001809100010895C9
S11302505C9A08955C9808955B9A08955B98089554
S11302602A9A08952A9808950E9480000E946D0099
S113027078940E94B1000E949F008FEF87B9412CAF
S1130280512C3201812C912C5401C12CD12C76019A
S113029010E0212C312CC8E8D0E00E94C100082FC6
S11302A0381609F444C0198218820E942E010E9453
S11302B032011092010110920001C0900301D0900C
S11302C00401E0900501F0900601023081F018F479
S11302D0013031F026C0033099F00430D1F021C050
S11302E023E327BD0E94280110E0212C20C086E6CC
S11302F087BD0E94280192E098B910E0212C17C014
S113030029E927BD0E94280183E088B910E0212C47
S11303100EC017BC0E942A0194E098B910E0212C69
S113032006C017BC0E942A0118B810E0212C809145
S1130330030190910401A0910501B09106018C196B
S11303409D09AE09BF0981319742A105B10530F07D
S113035017BC0E942A011092020100E00E94E500ED
S1130360382E281649F117BC0E942A0119821882D6
S11303700E942E011092020110920001409003018C
S113038050900401609005017090060181E03816D8
S113039021F092E0391631F00AC00E943001212C7C
S11303A000E00BC00E943201212C00E006C00E9434
S11303B03201212C00E001C0212E80910301909193
S11303C00401A0910501B091060184199509A609BB
S11303D0B70981319742A105B10528F00E94320185
S11303E010920101312C0E940801182F281609F4DB
S11303F048C017BC0E942A010E94320110920201D7
S1130400109201018090030190900401A0900501D5
S1130410B0900601123091F018F4113031F029C077
S11304201330A9F01430E1F024C084E590E09983FE
S113043088830E942C01212C312C25C086EA90E06F
S1130440998388830E942C01212C312C1CC08FEFAE
S113045090E0998388830E942C01212C312C13C0B5
S1130460198218820E942E0194E098B9212C312C13
S11304700AC0198218820E942E0118B8212C312C2E
S113048002C0232C302E8091030190910401A0918D
S11304900501B091060188199909AA09BB0981319E
S11304A09742A105B10508F4F8CE198218820E947A
S11104B02E011092000110E0F0CEF894FFCF60
S9030000FC
