S018000068656174657246616E436F6E74726F6C2E737265639D
S11300000C9434000C9446000C9446000C94460066
S11300100C9446000C9446000C9446000C94480042
S11300200C9446000C9446000C9446000C94460034
S11300300C9446000C9446000C9446000C94460024
S11300400C9446000C9446000C9446000C94460014
S11300500C9446000C9446000C9446000C94460004
S11300600C9446000C94460011241FBECFEFD8E038
S1130070DEBFCDBF21E0A0E0B1E001C01D92A830F9
S1130080B207E1F70E9470010C9416050C9400006D
S11300901F920F920FB60F9211242F933F934F93F9
S11300A05F936F937F938F939F93AF93BF93EF93DC
S11300B0FF938091040190910501A0910601B091F4
S11300C007010196A11DB11D8093040190930501C0
S11300D0A0930601B093070160910401709105019A
S11300E0809106019091070128E833E140E050E057
S11300F00E94F404672B682B692B19F481E0809328
S11301000001FF91EF91BF91AF919F918F917F91EA
S11301106F915F914F913F912F910F900FBE0F9070
S11301201F901895E0E7F0E0808182608083E0EB27
S1130130F0E0808182608083E1EBF0E08081866082
S113014080838FE38093B3000895569A5E9881E884
S113015084BD83E085BD16BC17BC219A299880E82C
S11301608093800083E1809381008FEF90E09093EF
S1130170870080938600109285001092840010926C
S113018089001092880008958AB188618AB98AB179
S1130190887F8AB934B124B181E090E002C0880F2D
S11301A0991F3A95E2F7822B84B90895EAE7F0E0C3
S11301B0808187688083ECE7F0E0808187648083B6
S11301C00895EAE7F0E0808180648083808186FD81
S11301D0FDCF609178007091790080E090E00E94FA
S11301E03D0421ED32E243E050E40E94CB03089544
S11301F089B182FB882780F908950E94F80088233A
S1130200C9F02FEF89EF90E0215080409040E1F752
S113021000C000000E94F8008111FCCF809103010E
S11302208F5F8093030180910301853018F081E092
S11302308093030180910301089589B186958170AB
S113024008950E941D018823C9F02FEF89EF90E0E3
S1130250215080409040E1F700C000000E941D0141
S11302608111FCCF809102018F5F80930201809104
S11302700201833018F081E0809302018091020131
S1130280089589B1817008950E9441018823C9F0BD
S11302902FEF89EF90E0215080409040E1F700C0BB
S11302A000000E9441018111FCCF809101018F5F08
S11302B08093010180910101853018F081E08093E1
S11302C001018091010108955C9A08955C98089554
S11302D05B9A08955B9808952A9A08952A98089538
S11302E0CF93DF93CDB7DEB729970FB6F894DEBF6F
S11302F00FBECDBF0E94A5000E94920078940E9478
S1130300D6000E94C4008FEF87B9812C912C540130
S1130310212C312C210119821A821B821C82D12C9E
S1130320712CC12C662463940E94FD00E82EC8162B
S113033009F44FC0A8E8B0E011961C921E920E94E6
S11303406A010E946E011092020110920101209133
S11303500401309105014091060150910701298360
S11303603A834B835C8332E0E316A9F03E1520F018
S113037041E0E41641F026C053E0E516A1F084E024
S1130380E816C9F01FC093E397BD0E946401CE2C08
S1130390D12C712C1FC0A6E6A7BD0E946401CE2CEF
S11303A0D12C712C17C0B9E9B7BD0E946401CE2CC1
S11303B0D12C712C0FC017BC0E946601CE2CD12CFD
S11303C0712C08C017BC0E946601CE2CD12C712C54
S11303D001C0C82E8091040190910501A0910601ED
S11303E0B091070129813A814B815C81821B930B77
S11303F0A40BB50B81349C49A105B10530F017BCA1
S11304000E94660110920301C12C0E9421018D8378
S1130410781659F117BC0E946601A8E8B0E011965D
S11304201C921E920E946A01109203011092010113
S11304308090040190900501A0900601B0900701FE
S1130440BD81B13019F0B23031F00AC00E946C01A4
S11304501986C12C0BC00E946E011986C12C06C0DE
S11304600E946E011986C12C01C0D98680910401B5
S113047090910501A0910601B0910701881999098D
S1130480AA09BB0981349C49A105B10528F00E9441
S11304906E01109202011D820E944401D82EF9853A
S11304A0F81709F458C017BC0E9466010E946E0137
S11304B01092030110920201209004013090050172
S11304C0409006015090070122E0D216C9F02D1584
S11304D020F031E0D31641F035C043E0D416E1F00A
S11304E054E0D51629F12EC0E4E5F0E0A8E8B0E028
S11304F01196FC93EE930E946801712CC12C2CC0C0
S1130500E6EAF0E0A8E8B0E01196FC93EE930E94CE
S11305106801712CC12C20C0EFEFF0E0A8E8B0E036
S11305201196FC93EE930E946801712CC12C14C0A7
S1130530A8E8B0E011961C921E920E946A01712CE8
S1130540C12C0AC0E8E8F0E0118210820E946A011E
S1130550712CC12C01C07D80809104019091050112
S1130560A0910601B091070182199309A409B50964
S113057081349C49A105B10550F0A8E8B0E011967A
S11305801C921E920E946A0110920101D12C80914A
S11305900001882309F4C8CE1092000188B1862591
S11305A088B9B5E0F12C00E010E01986BD830E9403
S11305B0E1009B01AC016F2D702F812F99850E9462
S11305C05A03F62E072F182F9987FD81F150FD83CA
S11305D0F111EDCF20E030E040EA50E40E94CB037B
S11305E06D837E838F83988720E030E040EA52E475
S11305F00E94C60388230CF058C022E0E21619F1C9
S11306002E1520F031E0E31649F04BC043E0E41628
S113061079F154E0E51609F440C043C020E030E02D
S113062040EF51E46D817E818F8198850E94EF04B3
S1130630882324F017BC0E94660176CE83E387BD2D
S11306400E94640171CE20E030E048E452E46D8100
S11306507E818F8198850E94EF04882324F017BC43
S11306600E94660161CE96E697BD0E9464015CCE4D
S113067020E030E04CE852E46D817E818F819885E2
S11306800E94EF04882324F017BC0E9466014CCE1C
S1130690A9E9A7BD0E94640147CE17BC0E94660168
S11306A043CE17BC0E9466013FCE17BC0E94660170
S11306B03BCE5058BB27AA270E9471030C94B50463
S11306C00E94A70438F00E94AE0420F039F49F3F42
S11306D019F426F40C94A4040EF4E095E7FB0C94AE
S11306E09E04E92F0E94C60458F3BA1762077307E1
S11306F08407950720F079F4A6F50C94E8040EF429
S1130700E0950B2EBA2FA02D0B01B90190010C011D
S1130710CA01A0011124FF27591B99F0593F50F435
S1130720503E68F11A16F040A22F232F342F44278D
S1130730585FF3CF469537952795A795F040539585
S1130740C9F77EF41F16BA0B620B730B840BBAF055
S11307509150A1F0FF0FBB1F661F771F881FC2F7C0
S11307600EC0BA0F621F731F841F48F487957795D4
S11307706795B795F7959E3F08F0B0CF9395880F8E
S113078008F09927EE0F9795879508950E947A04AB
S113079008F481E008950E94DF030C94B5040E94DC
S11307A0AE0458F00E94A70440F029F45F3F29F0FA
S11307B00C949E0451110C94E9040C94A4040E941A
S11307C0C60468F39923B1F3552391F3951B550B94
S11307D0BB27AA2762177307840738F09F5F5F4F10
S11307E0220F331F441FAA1FA9F335D00E2E3AF04F
S11307F0E0E832D091505040E695001CCAF72BD067
S1130800FE2F29D0660F771F881FBB1F26173707B7
S11308104807AB07B0E809F0BB0B802DBF01FF27E9
S113082093585F4F3AF09E3F510578F00C949E0424
S11308300C94E9045F3FE4F3983ED4F386957795EE
S11308406795B795F7959F5FC9F7880F911D9695A2
S1130850879597F90895E1E0660F771F881FBB1FFE
S1130860621773078407BA0720F0621B730B840BAB
S1130870BA0BEE1F88F7E0950895E89409C097FB3A
S11308803EF490958095709561957F4F8F4F9F4F63
S11308909923A9F0F92F96E9BB279395F6958795A7
S11308A077956795B795F111F8CFFAF4BB0F11F46A
S11308B060FF1BC06F5F7F4F8F4F9F4F16C0882311
S11308C011F096E911C0772321F09EE8872F762F47
S11308D005C0662371F096E8862F70E060E02AF088
S11308E09A95660F771F881FDAF7880F9695879574
S11308F097F90895990F0008550FAA0BE0E8FEEF49
S113090016161706E807F907C0F012161306E407CF
S1130910F50798F0621B730B840B950B39F40A26C8
S113092061F0232B242B252B21F408950A2609F4A6
S1130930A140A6958FEF811D811D089597F99F67AA
S113094080E870E060E008959FEF80EC0895002453
S11309500A941616170618060906089500240A9420
S113096012161306140605060895092E0394000CA6
S113097011F4882352F0BB0F40F4BF2B11F460FF35
S113098004C06F5F7F4F8F4F9F4F089557FD90585E
S1130990440F551F59F05F3F71F04795880F97FB3F
S11309A0991F61F09F3F79F08795089512161306F9
S11309B01406551FF2CF4695F1DF08C01616170628
S11309C01806991FF1CF869571056105089408955D
S11309D0E894BB2766277727CB0197F908950E94EF
S11309E07A0408F48FEF0895A1E21A2EAA1BBB1B08
S11309F0FD010DC0AA1FBB1FEE1FFF1FA217B307E7
S1130A00E407F50720F0A21BB30BE40BF50B661FFC
S1130A10771F881F991F1A9469F7609570958095C0
S1130A2090959B01AC01BD01CF010895F894FFCFCF
S9030000FC
