:100000000C9434000C9446000C9446000C9446006A
:100010000C9446000C9446000C9446000C94480046
:100020000C9446000C9446000C9446000C94460038
:100030000C9446000C9446000C9446000C94460028
:100040000C9446000C9446000C9446000C94460018
:100050000C9446000C9446000C9446000C94460008
:100060000C9446000C94460011241FBECFEFD8E03C
:10007000DEBFCDBF21E0A0E0B1E001C01D92A53000
:10008000B207E1F70E94CE000C94F6000C94000039
:100090001F920F920FB60F9211248F939F93AF93DD
:1000A000BF938091010190910201A0910301B09151
:1000B00004010196A11DB11D8093010190930201DD
:1000C000A0930301B0930401BF91AF919F918F91D1
:1000D0000F900FBE0F901F901895E0E7F0E0808121
:1000E00082608083E0EBF0E0808182608083E1EBDE
:1000F000F0E08081866080838FE38093B300089571
:10010000569A5E9881E884BD83E085BD16BC17BC15
:10011000219A299880E88093800083E18093810070
:100120008FEF90E090938700809386001092850077
:100130001092840010928900109288000895EAE7D6
:10014000F0E0808187688083ECE7F0E0808187645D
:100150008083089589B182FB882780F908950E94E1
:10016000AA008823C1F02FEF89EF90E02150804052
:100170009040E1F700C000000E94AA008111FCCF6E
:10018000809100018F5F853018F48093000103C0D7
:1001900081E0809300018091000108950E94800019
:1001A0000E946D0078940E949F0084E590E09093F7
:1001B00089008093880087BD8FEF87B904E013E042
:1001C000D2E0C1E00E94AF00813011F4C8B9FACF8B
:1001D000823011F4D8B9F6CF833011F418B9F2CFC8
:1001E000843011F408B9EECF18B8ECCFF894FFCFF3
:00000001FF
