S018000068656174657246616E436F6E74726F6C2E737265639D
S11300000C9434000C9446000C9446000C94460066
S11300100C9446000C9446000C9446000C94480042
S11300200C9446000C9446000C9446000C94460034
S11300300C9446000C9446000C9446000C94460024
S11300400C9446000C9446000C9446000C94460014
S11300500C9446000C9446000C9446000C94460004
S11300600C9446000C94460011241FBECFEFD8E038
S1130070DEBFCDBF21E0A0E0B1E001C01D92A430FD
S1130080B207E1F70E949F000C94EC000C9400006E
S11300901F920F920FB60F9211248F939F93AF93D9
S11300A0BF938091000190910101A0910201B09150
S11300B003010196A11DB11D8093000190930101DC
S11300C0A0930201B0930301BF91AF919F918F91CF
S11300D00F900FBE0F901F901895E0E7F0E080811D
S11300E082608083E0EBF0E0808182608083E1EBDA
S11300F0F0E08081866080838FE38093B30008956D
S1130100569A5E9881E884BD83E085BD16BC17BC11
S1130110219A299880E88093800083E1809381006C
S11301208FEF90E090938700809386001092850073
S113013010928400109289001092880008950E9401
S113014080000E946D00789484E590E0909389008B
S11301508093880087BD8FEF87B90F2EF8EECF2EDE
S1130160F3E0DF2EE12CF12CF02DCAEA60910001BE
S1130170709101018091020190910301A701960100
S11301800E94CA00672B682B692B81F788B18C27E2
S113019088B9ECCFA1E21A2EAA1BBB1BFD010DC02E
S11301A0AA1FBB1FEE1FFF1FA217B307E407F50723
S11301B020F0A21BB30BE40BF50B661F771F881FFF
S11301C0991F1A9469F760957095809590959B0195
S10F01D0AC01BD01CF010895F894FFCFED
S9030000FC
