:100000000C9434000C943E000C943E000C943E0082
:100010000C943E000C943E000C943E000C943E0068
:100020000C943E000C943E000C943E000C943E0058
:100030000C943E000C943E000C943E000C943E0048
:100040000C943E000C943E000C943E000C943E0038
:100050000C943E000C943E000C943E000C943E0028
:100060000C943E000C943E0011241FBECFEFD8E04C
:10007000DEBFCDBF0E945F000C9469000C940000AD
:10008000569A5E9881E884BD83E085BD16BC17BC96
:10009000219A299880EC8093800083E180938100ED
:1000A0008FEF90E0909387008093860010928500F8
:1000B00010928400109289001092880008950E9486
:1000C000400084E590E0909389008093880087BD8C
:0600D000FFCFF894FFCF02
:00000001FF
